:020000040000FA
:1000000048050020D5000000F5000000F7000000C2
:1000100000000000000000000000000000000000E0
:10002000000000000000000000000000F9000000D7
:100030000000000000000000FB000000FD000000C8
:10004000FF000000FF000000FF000000FF000000B4
:10005000FF000000FF000000FF000000FF000000A4
:10006000FF000000B5030000FF000000FF000000DB
:1000700011040000FF000000FF000000FF0000006E
:10008000FF000000FF000000FF000000FF00000074
:10009000FF000000FF000000FF000000FF00000064
:1000A000FF000000FF000000FF000000FF00000054
:1000B000FF000000FF000000FF000000FF00000044
:1000C0000348854600F054F800480047AD0800009A
:1000D000480500200A480B4901600B4901600B49A3
:1000E00001600B4A0B491160002101600A488047FA
:1000F0000A480047FEE7FEE7FEE7FEE7FEE7FEE709
:1001000000010050590000001600000088000000A7
:1001100024000050A55A0000B1030000C1000000F7
:1001200030B50B46014600202022012409E00D468F
:10013000D5409D4205D31D469540491B2546954017
:1001400040191546521E002DF1DC30BD03460B430D
:100150009B0703D009E008C9121F08C0042AFAD27D
:1001600003E00B78491C0370401C521EF9D2704703
:10017000064C0125064E05E02046E36807C82B43E0
:1001800098471034B442F7D3FFF79EFFC809000028
:10019000E8090000FEB50020029019A00068009058
:1001A0001848046A0013044201D00020FEBD01205B
:1001B000C004044201D0144D00E0144D012040045D
:1001C000044201D02846F1E7032080032040800B41
:1001D00069460A5C0192E005C00D871C1F204002A1
:1001E0002040400A861C019A72431146AA087A43AD
:1001F0001046FFF795FF800002900298D6E70000B6
:10020000010202040002005000805101001BB700EF
:10021000FEB50020029019A0006800901848046AFA
:100220000013044201D00020FEBD0120C00404429E
:1002300001D0144D00E0144D01204004044201D0CF
:100240002846F1E7032080032040800B69460A5CC2
:100250000192E005C00D871C1F2040022040400A8B
:10026000861C019A72431146AA087A431046FFF78A
:1002700057FF800002900298D6E7000001020204B6
:100280000002005000805101001BB700064904E045
:100290000A46491E002A00DC04E0044AD2680240F3
:1002A0008242F5D100BF704790D003000002005099
:1002B00010B5154800680421084313490860102050
:1002C000FFF7E4FF0720104908610846006AC901EA
:1002D00008430D49086208460068012108430A499D
:1002E00008600A4808620520FFF7D0FF1A20064977
:1002F0000861074888600748486100F027F8032034
:1003000005210907C86310BD000200501742000014
:1003100008000100002000010B49020E92008958DC
:10032000012282401143084A030E9B00D15011461E
:10033000020E92008958012282409143024A030E24
:100340009B00D150704700000800005070B5124863
:10035000006945076D0FFFF75BFF10490860022D2C
:1003600003D0A8000E490C5801E00C4804680A4864
:1003700080690007000F461C31462046FFF7D0FE7B
:10038000084908600849074800684A108018FFF7C4
:10039000C7FE0649086070BD00020050E000002062
:1003A000A8090000D800002040420F00DC00002017
:1003B0007047000010B500BF11488068C007C00F2B
:1003C00001281BD100BF0E49886000BF0D4800788E
:1003D000002810D00C480068401C0B4908600846F3
:1003E00000680A490988884208DB00F0A9FA002061
:1003F0000549086002E000200349086010BD0000C4
:10040000200001400000002004000020080000201F
:1004100010B50D48C069C007C00F07D0FF210131DA
:10042000094800F013F800F093FA0CE006488069E0
:10043000012109070840000F05D0C914024800F047
:1004400005F800F08DFA10BD00000540012292026F
:10045000114207D0826960231A43826182690823AE
:100460001A4382610122D202114203D04269012360
:100470001A43426101225203114203D08269064BA2
:100480001A4382610122D203114203D0C269802340
:100490001A43C2617047000001000001F0B585B049
:1004A00004460D461E4801460EC9C0686E460EC67B
:1004B000039000271B484069032109060840060EE7
:1004C000002020630320E060A06817490840A06076
:1004D000012E04D1FFF75EFEB1006A465050002D98
:1004E0001BD0B1006A4651586A0888182946FFF7A0
:1004F00017FE871E0D4887420BD9B1006A46515836
:10050000EA0088182946FFF70BFE0009801E60628A
:1005100003E0032000073843606205B0F0BD00002F
:1005200078090000000200500FFFF0FFFFFF0000FD
:1005300070B503460C46002110E0002506E06D1C56
:1005400001208007854201D3002070BD98690126F3
:1005500036073042F3D0605C1860491C9142ECD100
:100560000846F2E702E008C8121F08C1002AFAD1C3
:1005700070477047002001E001C1121F002AFBD123
:100580007047F8B504460D460027207804283FD16F
:100590006078022806D0042812D005281AD0062830
:1005A0002DD122E008202070022060700020A07071
:1005B0008920E070002020716071062028801EE0F4
:1005C00006202070042060700020A070E0700420DD
:1005D000288014E006202070052060700320A070A1
:1005E000E820E0700420288009E006202070607078
:1005F0005520A070F020E0700420288000BF00BFCC
:100600000026002E05D0304600F088F9074600E0AD
:1006100003273846F8BDFEB505460C46002001907C
:100620002088052838D1687800020290A8780299BD
:10063000084302900298401C80B20290E8780602BB
:100640002E79012E25DB7D2E23DC2F4600202080F5
:10065000032038707F1C2088401C20807006000E0C
:1006600038707F1C2088401C20800023324638468A
:10067000029900F0B9F800900098002804D0009882
:1006800000F04CF9019009E02088710040182080AA
:1006900004E00320019001E0032001900198FEBDD9
:1006A000F0B587B004460D460020029028880A283D
:1006B00063DB607800020690A078069908430690F4
:1006C0000698401C80B20690E07806022079064326
:1006D000607900020590A079059908430590059876
:1006E000401C80B20590E0790702207A0743607AC7
:1006F0000490012E3FDB7D2E3DDC012F3BDB792F6B
:1007000039DC79000498814235D101233A462046EC
:100710000A30059900F068F801900198002822D16C
:10072000039428801720039C2070039C601C039076
:100730002888401C28807006010E039801700398D9
:10074000401C03902888401C2880002332460699CC
:10075000039800F049F801900198002803D12888F7
:100760007100401828800198002806D0019800F0F8
:10077000D5F8029001E003200290029807B0F0BD86
:1007800070B504460D46064802880649601CFFF70E
:10079000DDFC03480088401C2880002070BD00005C
:1007A0001C00002024030020F8B504460F4600205A
:1007B00000903888052813D160780502A078054399
:1007C000681C85B201231A462946E01C00F00CF88B
:1007D0000646002E06D0304600F0A0F8009001E05A
:1007E000032000900098F8BDFFB583B004460E4684
:1007F0000020029000F0BEF800280ED000F0B8F8FB
:100800000001264FC31901250820019024480088C3
:10081000C0B200900120069007E0224B012508207D
:10082000019021480088C0B20090AE4230DBB7187A
:100830000198281887422BDC0098311A0698002866
:1008400002D0012823D10FE00BE04800185A001213
:100850002070641C4800185A2070641C491C501EEB
:1008600082B2002AF1DC12E00EE02078641C000263
:100870004F00D8532078641C4F00DF5B38434F0093
:10088000D853491C501E82B2002AEEDC00BF01E0A2
:1008900001200290029807B0F0BD00002402002061
:1008A00018000020F40000201000002000BF06E027
:1008B00059201349086016200860882008601048F5
:1008C00000680128F4D100BFFFF7F2FC00BF002050
:1008D0000B49086000BF0B48FFF71EFD4B21C90103
:1008E0000948FFF7DBFD0AE0084800BF0146401E4B
:1008F0000029FBD10A2206A10348FFF719FEF3E7FE
:100900000001005010000004000005401027000006
:1009100066697374207465737420000001460029B1
:1009200004D0012904D0072906D103E0002005E006
:10093000022003E0062001E0042000BF00BF704752
:1009400010B502480068804710BD0000CC000020B0
:1009500010B502480068804710BD0000C4000020A8
:1009600010B502480068804710BD0000C800002094
:100970000020704700207047001BB70000000000F7
:100980000000000000805101001BB70000000000C3
:100990000000000000805101001BB70000000000B3
:1009A0000000000000805101001BB70000000000A3
:1009B00080F0FA0210270000000000000000000094
:1009C0000000000000805101E80900000000002044
:1009D000E400000064050000CC0A0000E4000020F0
:1009E0006404000074050000000000000000000026
:1009F00000000100010001000100010001000100F0
:100A000001000000000000000200000004000000DF
:100A100083050000110000008107000003000000B2
:100A20001706000006000000A907000017000000DC
:100A3000A10600000000000000000000000000000F
:100A400000000000000000000000000000000000A6
:100A50000000000000000000000000000000000096
:100A60000000000000000000000000000000000086
:100A70000000000000000000000000000000000076
:100A80000000000000000000000000000000000066
:100A90000000000000000000000000000000000056
:100AA0000000000000000000000000000000000046
:100AB0000000000000000000000000000000000036
:0C0AC00080F0FA023200000080F0FA0220
:04000005000000D522
:00000001FF
